S01700002E2F44656275672F6175746F706F6E672E733139FD
S315200000000248854600F0F4FBFEE7C04600C001200A
S3152000001080B584B000AFF860B9607A60FB68BA68D2
S315200000205A60FB687A689A60C046BD4604B080BDB7
S3152000003080B584B000AF78600023FB601EE07B684B
S315200000401A68FB6804335B00D31804331B781A0044
S315200000507B68DB68D0187B681A68FB6804335B0012
S31520000060D31805331B781A007B681B69D318012225
S31520000070190000F0DDFAFB680133FB607B681B6822
S315200000801B68FA689A42DADBC046BD4604B080BDDA
S3152000009080B584B000AF78600023FB601EE07B68EB
S315200000A01A68FB6804335B00D31804331B781A00E4
S315200000B07B68DB68D0187B681A68FB6804335B00B2
S315200000C0D31805331B781A007B681B69D3180022C6
S315200000D0190000F0ADFAFB680133FB607B681B68F2
S315200000E01B68FA689A42DADBC046BD4604B080BD7A
S315200000F080B582B000AF78607B681800FFF7C8FF34
S315200001007B68DA687B685B68D2187B68DA607B6814
S315200001101A697B689B68D2187B681A617B68DB68E2
S31520000120002B04DC7B685B685A427B685A607B68DC
S31520000130DA687B681B685B68D318802B04DD7B68D4
S315200001405B685A427B685A607B681B69002B04DC1B
S315200001507B689B685A427B689A607B681A697B68D1
S315200001601B689B68D318402B04DD7B689B685A422A
S315200001707B689A607B681800FFF75AFFC046BD4629
S3152000018002B080BD80B500AF0C4B00221A600C4B2C
S3152000019029221A600B4B00221A60084B05221A608E
S315200001A0C046064B1A6880235B021340F9D0034BE6
S315200001B000221A60C046BD4680BDC04610E000E061
S315200001C014E000E018E000E080B500AF0C4B002200
S315200001D01A600C4B53221A600B4B00221A60084BF4
S315200001E005221A60C046064B1A6880235B0213401C
S315200001F0F9D0034B00221A60C046BD4680BDC046DA
S3152000020010E000E014E000E018E000E080B582B0E5
S3152000021000AF78607A68FA239900100000F002FB9C
S3152000022003007B607B6801337B600AE0FFF7AAFF4F
S31520000230FFF7A8FFFFF7A6FFFFF7A4FF7B68013BA8
S315200002407B607B68002BF1D1C046BD4602B080BDE5
S3152000025080B582B000AF78607A6813005B019B1A84
S315200002609B009B18DB001800FFF7D0FFC046BD4659
S3152000027002B080BD80B584B000AF0200FB1D1A70AD
S315200002800C4A0F217B1812781A70FB1D1B785BB263
S31520000290042293435AB27B181B785BB213435AB29B
S315200002A07B181A70034A7B181B781370C046BD460C
S315200002B004B080BD1410024080B584B000AF0200A7
S315200002C0FB1D1A700E4A0F217B1812781A70FB1D1F
S315200002D01B785BB2DB435BB27A18127852B21340BA
S315200002E05BB2DAB208007B1804218A431A70044AEA
S315200002F001007B181B781370C046BD4604B080BD34
S315200003001410024080B582B000AF0200FB1D1A70A7
S31520000310FB1D1B78082B0CD002DC002B05D01AE025
S31520000320102B0DD0182B12D015E01820FFF7C4FF84
S3152000033011E00820FFF79EFF1020FFF7BDFF0AE01F
S315200003400820FFF7B9FF1020FFF794FF03E01820DD
S31520000350FFF790FFC046C046BD4602B080BD80B5BF
S3152000036082B000AF4020FFF7A7FF144B144A1A6053
S315200003700120FFF7A1FF0220FFF77CFFFFF724FFF4
S31520000380FB1D1B78002B11D04020FFF773FFFFF7D2
S315200003901BFF0C4B1B78DAB2FB1D7F218A431A7098
S315200003A04020FFF789FFFFF70FFFE9E7C046034B21
S315200003B0054A1A60C046BD4602B080BD0010024004
S315200003C055550000111002405555555580B584B03D
S315200003D000AF0200FB1D1A704020FFF76DFF184B7F
S315200003E0184A1A600320FFF745FFFB1D1B781800EB
S315200003F0FFF788FF4020FFF73DFF134A0F23FB1826
S3152000040012781A704020FFF757FF0D4B0F4A1A60DB
S31520000410FB1D1B780822134002D00820FFF772FF2D
S31520000420FB1D1B781022134002D01020FFF76AFF15
S315200004300F23FB181B781800BD4604B080BDC046AC
S3152000044000100240555500001110024055555555D3
S3152000045080B582B000AF0200FB1D1A70FB1D1B7811
S315200004601800FFF7B3FFFB1D1B781800FFF7AEFF40
S3152000047003001800BD4602B080BD80B582B000AF33
S315200004800200FB1D1A70BB1D0A1C1A70154AFB1DA3
S315200004901B781370BB1D1B781800FFF733FF402015
S315200004A0FFF7E8FE4020FFF707FFBB1D1B78082259
S315200004B0134002D00820FFF725FFBB1D1B78102212
S315200004C0134002D01020FFF71DFF064B00221A70A2
S315200004D04020FFF7CFFE0020FFF714FFC046BD46A1
S315200004E002B080BD1510024080B582B000AF020078
S315200004F0FB1D1A70BB1D0A1C1A704020FFF7DCFE7C
S31520000500BB1D1B781800FFF7FDFE0320FFF7D4FE66
S31520000510BB1D1A78FB1D1B7811001800FFF7ADFFD5
S31520000520C046BD4602B080BD80B582B000AF020095
S31520000530FB1D1A70BB1D0A1C1A704020FFF7BCFE5B
S31520000540BB1D1B781800FFF7DDFE0120FFF792FE8A
S315200005500220FFF7B1FEBB1D1A78FB1D1B78110088
S315200005601800FFF78AFFC046BD4602B080BD80B5A1
S3152000057082B000AFFB1D00221A7023E0FB1D1B7802
S31520000580482252421343DBB218211800FFF7ACFF72
S3152000059018214020FFF7A8FFBB1D00221A7008E093
S315200005A018210020FFF7C0FFBB1D1A78BB1D0132A2
S315200005B01A70BB1D1B783F2BF2D9FB1D1A78FB1D29
S315200005C001321A70FB1D1B78072BD7D9C046BD46B2
S315200005D002B080BD80B500AF4020FFF74BFE0A2059
S315200005E0FFF714FE7820FFF767FE1E20FFF730FE88
S315200005F02020FFF73FFE6420FFF72AFE18213E2029
S31520000600FFF772FF18213F20FFF76EFF1821C02049
S31520000610FFF76AFF18214020FFF766FF1821B82050
S31520000620FFF762FF0020FFF76DFEC046BD4680BD86
S31520000630B0B588B000AFF860B9607A60FB68002B6F
S3152000064000DCB6E0BB68002B00DCB2E0FB68802B48
S3152000065000DDAEE0BB68402B00DDAAE0BB68013BB5
S31520000660002B00DA0733DB10BB61BB68013B534A22
S31520000670134004D5013B0822524213430133072B72
S315200006802CD89A004E4BD3181B689F461F23FB1865
S3152000069001221A7022E01F23FB1802221A701DE085
S315200006A01F23FB1804221A7018E01F23FB180822A8
S315200006B01A7013E01F23FB1810221A700EE01F2356
S315200006C0FB1820221A7009E01F23FB1840221A70FB
S315200006D004E01F23FB1880221A70C0467B68002B7B
S315200006E005D11F22BB18BA181278D2431A70FB689C
S315200006F0402B07DD1E23FB1810221A70FB68413B96
S31520000700FB6006E01E23FB1808221A70FB68013BDB
S31520000710FB60FB685BB2402213435BB2DAB21E2554
S315200007207B191B7819001000FFF7DEFEBB695BB250
S315200007304822524213435BB2DAB27B191B78190066
S315200007401000FFF7D1FE1723FC187B191B78180021
S31520000750FFF77EFE03002370FB685BB24022134343
S315200007605BB2DAB27B191B7819001000FFF7BCFECA
S315200007707B68002B09D01F22BB18B9181722BA187C
S31520000780097812780A431A7008E01F22BB18BA1893
S3152000079017217918127809780A401A701E23FB1837
S315200007A01A781F23FB181B7811001800FFF7BCFED0
S315200007B000E0C046BD4608B0B0BDC0460700008078
S315200007C09409002080B500AF054B064A1A60064BF7
S315200007D000221A80054B00221A60C046BD4680BD05
S315200007E00010024055555555041002400C10024089
S315200007F080B582B000AF0A4B7B60FFF7E3FFFFF7BF
S31520000800E9FE7B681B6A78680122042198477B6889
S31520000810DB697A68100098472820FFF719FDF6E76C
S3152000082070090020002243088B4274D303098B42AF
S315200008305FD3030A8B4244D3030B8B4228D3030C8A
S315200008408B420DD3FF22090212BA030C8B4202D32C
S315200008501212090265D0030B8B4219D300E0090A54
S31520000860C30B8B4201D3CB03C01A5241830B8B425D
S3152000087001D38B03C01A5241430B8B4201D34B0346
S31520000880C01A5241030B8B4201D30B03C01A5241AB
S31520000890C30A8B4201D3CB02C01A5241830A8B4230
S315200008A001D38B02C01A5241430A8B4201D34B0219
S315200008B0C01A5241030A8B4201D30B02C01A52417D
S315200008C0CDD2C3098B4201D3CB01C01A5241830931
S315200008D08B4201D38B01C01A524143098B4201D36B
S315200008E04B01C01A524103098B4201D30B01C01A96
S315200008F05241C3088B4201D3CB00C01A5241830810
S315200009008B4201D38B00C01A524143088B4201D33C
S315200009104B00C01A5241411A00D20146524110469C
S315200009207047FFE701B5002000F006F802BDC0467B
S315200009300029F7D076E770477047C0460C000000C4
S315200009400400000004000000000100020100010173
S315200009500102010302000201020202030301030253
S315200009600000000000000000000000000000000061
S315200009703C090020000000000000000001000000EB
S31520000980010000003100002091000020F10000202D
S31520000990110000208C06002096060020A0060020CC
S315200009A0AA060020B4060020BE060020C8060020A5
S309200009B0D206002025
S70520000000DA
